{
  "_format": "hh-sol-artifact-1",
  "contractName": "Woo",
  "sourceName": "contracts/Woo.sol",
  "abi": [
    {
      "inputs": [
        {
          "internalType": "string",
          "name": "name",
          "type": "string"
        },
        {
          "internalType": "string",
          "name": "symbol",
          "type": "string"
        },
        {
          "internalType": "uint256",
          "name": "supplyCap",
          "type": "uint256"
        }
      ],
      "stateMutability": "nonpayable",
      "type": "constructor"
    },
    {
      "anonymous": false,
      "inputs": [
        {
          "indexed": true,
          "internalType": "address",
          "name": "owner",
          "type": "address"
        },
        {
          "indexed": true,
          "internalType": "address",
          "name": "spender",
          "type": "address"
        },
        {
          "indexed": false,
          "internalType": "uint256",
          "name": "value",
          "type": "uint256"
        }
      ],
      "name": "Approval",
      "type": "event"
    },
    {
      "anonymous": false,
      "inputs": [
        {
          "indexed": true,
          "internalType": "address",
          "name": "currentOwner",
          "type": "address"
        },
        {
          "indexed": true,
          "internalType": "address",
          "name": "newOwner",
          "type": "address"
        }
      ],
      "name": "OwnershipTransferred",
      "type": "event"
    },
    {
      "anonymous": false,
      "inputs": [
        {
          "indexed": true,
          "internalType": "address",
          "name": "from",
          "type": "address"
        },
        {
          "indexed": true,
          "internalType": "address",
          "name": "to",
          "type": "address"
        },
        {
          "indexed": false,
          "internalType": "uint256",
          "name": "value",
          "type": "uint256"
        }
      ],
      "name": "Transfer",
      "type": "event"
    },
    {
      "inputs": [
        {
          "internalType": "address",
          "name": "owner",
          "type": "address"
        },
        {
          "internalType": "address",
          "name": "spender",
          "type": "address"
        }
      ],
      "name": "allowance",
      "outputs": [
        {
          "internalType": "uint256",
          "name": "",
          "type": "uint256"
        }
      ],
      "stateMutability": "view",
      "type": "function"
    },
    {
      "inputs": [
        {
          "internalType": "address",
          "name": "spender",
          "type": "address"
        },
        {
          "internalType": "uint256",
          "name": "amount",
          "type": "uint256"
        }
      ],
      "name": "approve",
      "outputs": [
        {
          "internalType": "bool",
          "name": "",
          "type": "bool"
        }
      ],
      "stateMutability": "nonpayable",
      "type": "function"
    },
    {
      "inputs": [
        {
          "internalType": "address",
          "name": "account",
          "type": "address"
        }
      ],
      "name": "balanceOf",
      "outputs": [
        {
          "internalType": "uint256",
          "name": "",
          "type": "uint256"
        }
      ],
      "stateMutability": "view",
      "type": "function"
    },
    {
      "inputs": [
        {
          "internalType": "address",
          "name": "account",
          "type": "address"
        },
        {
          "internalType": "uint256",
          "name": "amount",
          "type": "uint256"
        }
      ],
      "name": "burn",
      "outputs": [],
      "stateMutability": "nonpayable",
      "type": "function"
    },
    {
      "inputs": [],
      "name": "decimals",
      "outputs": [
        {
          "internalType": "uint8",
          "name": "",
          "type": "uint8"
        }
      ],
      "stateMutability": "view",
      "type": "function"
    },
    {
      "inputs": [
        {
          "internalType": "address",
          "name": "spender",
          "type": "address"
        },
        {
          "internalType": "uint256",
          "name": "subtractedValue",
          "type": "uint256"
        }
      ],
      "name": "decreaseAllowance",
      "outputs": [
        {
          "internalType": "bool",
          "name": "",
          "type": "bool"
        }
      ],
      "stateMutability": "nonpayable",
      "type": "function"
    },
    {
      "inputs": [
        {
          "internalType": "address",
          "name": "spender",
          "type": "address"
        },
        {
          "internalType": "uint256",
          "name": "addedValue",
          "type": "uint256"
        }
      ],
      "name": "increaseAllowance",
      "outputs": [
        {
          "internalType": "bool",
          "name": "",
          "type": "bool"
        }
      ],
      "stateMutability": "nonpayable",
      "type": "function"
    },
    {
      "inputs": [
        {
          "internalType": "address",
          "name": "",
          "type": "address"
        }
      ],
      "name": "lockInfo",
      "outputs": [
        {
          "internalType": "uint256",
          "name": "",
          "type": "uint256"
        }
      ],
      "stateMutability": "view",
      "type": "function"
    },
    {
      "inputs": [
        {
          "internalType": "address",
          "name": "account",
          "type": "address"
        },
        {
          "internalType": "uint256",
          "name": "amount",
          "type": "uint256"
        }
      ],
      "name": "mint",
      "outputs": [],
      "stateMutability": "nonpayable",
      "type": "function"
    },
    {
      "inputs": [],
      "name": "name",
      "outputs": [
        {
          "internalType": "string",
          "name": "",
          "type": "string"
        }
      ],
      "stateMutability": "view",
      "type": "function"
    },
    {
      "inputs": [],
      "name": "owner",
      "outputs": [
        {
          "internalType": "address",
          "name": "ownerAddress",
          "type": "address"
        }
      ],
      "stateMutability": "view",
      "type": "function"
    },
    {
      "inputs": [],
      "name": "symbol",
      "outputs": [
        {
          "internalType": "string",
          "name": "",
          "type": "string"
        }
      ],
      "stateMutability": "view",
      "type": "function"
    },
    {
      "inputs": [],
      "name": "totalSupply",
      "outputs": [
        {
          "internalType": "uint256",
          "name": "",
          "type": "uint256"
        }
      ],
      "stateMutability": "view",
      "type": "function"
    },
    {
      "inputs": [
        {
          "internalType": "address",
          "name": "to",
          "type": "address"
        },
        {
          "internalType": "uint256",
          "name": "amount",
          "type": "uint256"
        }
      ],
      "name": "transfer",
      "outputs": [
        {
          "internalType": "bool",
          "name": "",
          "type": "bool"
        }
      ],
      "stateMutability": "nonpayable",
      "type": "function"
    },
    {
      "inputs": [
        {
          "internalType": "address",
          "name": "from",
          "type": "address"
        },
        {
          "internalType": "address",
          "name": "to",
          "type": "address"
        },
        {
          "internalType": "uint256",
          "name": "amount",
          "type": "uint256"
        }
      ],
      "name": "transferFrom",
      "outputs": [
        {
          "internalType": "bool",
          "name": "",
          "type": "bool"
        }
      ],
      "stateMutability": "nonpayable",
      "type": "function"
    },
    {
      "inputs": [
        {
          "internalType": "address",
          "name": "account",
          "type": "address"
        }
      ],
      "name": "transferOwnership",
      "outputs": [],
      "stateMutability": "nonpayable",
      "type": "function"
    }
  ],
  "bytecode": "0x60806040523480156200001157600080fd5b50604051620020b5380380620020b58339818101604052810190620000379190620001f7565b8282816003908051906020019062000051929190620000be565b5080600490805190602001906200006a929190620000be565b50505033600560006101000a81548173ffffffffffffffffffffffffffffffffffffffff021916908373ffffffffffffffffffffffffffffffffffffffff16021790555080600681905550505050620003d4565b828054620000cc9062000326565b90600052602060002090601f016020900481019282620000f057600085556200013c565b82601f106200010b57805160ff19168380011785556200013c565b828001600101855582156200013c579182015b828111156200013b5782518255916020019190600101906200011e565b5b5090506200014b91906200014f565b5090565b5b808211156200016a57600081600090555060010162000150565b5090565b6000620001856200017f84620002b3565b6200027f565b9050828152602081018484840111156200019e57600080fd5b620001ab848285620002f0565b509392505050565b600082601f830112620001c557600080fd5b8151620001d78482602086016200016e565b91505092915050565b600081519050620001f181620003ba565b92915050565b6000806000606084860312156200020d57600080fd5b600084015167ffffffffffffffff8111156200022857600080fd5b6200023686828701620001b3565b935050602084015167ffffffffffffffff8111156200025457600080fd5b6200026286828701620001b3565b92505060406200027586828701620001e0565b9150509250925092565b6000604051905081810181811067ffffffffffffffff82111715620002a957620002a86200038b565b5b8060405250919050565b600067ffffffffffffffff821115620002d157620002d06200038b565b5b601f19601f8301169050602081019050919050565b6000819050919050565b60005b8381101562000310578082015181840152602081019050620002f3565b8381111562000320576000848401525b50505050565b600060028204905060018216806200033f57607f821691505b602082108114156200035657620003556200035c565b5b50919050565b7f4e487b7100000000000000000000000000000000000000000000000000000000600052602260045260246000fd5b7f4e487b7100000000000000000000000000000000000000000000000000000000600052604160045260246000fd5b620003c581620002e6565b8114620003d157600080fd5b50565b611cd180620003e46000396000f3fe608060405234801561001057600080fd5b50600436106101005760003560e01c806370a0823111610097578063a457c2d711610066578063a457c2d7146102c3578063a9059cbb146102f3578063dd62ed3e14610323578063f2fde38b1461035357610100565b806370a082311461023b5780638da5cb5b1461026b57806395d89b41146102895780639dc29fac146102a757610100565b8063313ce567116100d3578063313ce567146101a157806339509351146101bf57806340c10f19146101ef5780636bd3b87c1461020b57610100565b806306fdde0314610105578063095ea7b31461012357806318160ddd1461015357806323b872dd14610171575b600080fd5b61010d61036f565b60405161011a91906118da565b60405180910390f35b61013d60048036038101906101389190611311565b610401565b60405161014a91906118bf565b60405180910390f35b61015b610424565b6040516101689190611a9c565b60405180910390f35b61018b600480360381019061018691906112c2565b61042e565b60405161019891906118bf565b60405180910390f35b6101a961045d565b6040516101b69190611ab7565b60405180910390f35b6101d960048036038101906101d49190611311565b610466565b6040516101e691906118bf565b60405180910390f35b61020960048036038101906102049190611311565b61049d565b005b6102256004803603810190610220919061125d565b610592565b6040516102329190611a9c565b60405180910390f35b6102556004803603810190610250919061125d565b6105aa565b6040516102629190611a9c565b60405180910390f35b6102736105f2565b60405161028091906118a4565b60405180910390f35b61029161061c565b60405161029e91906118da565b60405180910390f35b6102c160048036038101906102bc9190611311565b6106ae565b005b6102dd60048036038101906102d89190611311565b61074c565b6040516102ea91906118bf565b60405180910390f35b61030d60048036038101906103089190611311565b6107c3565b60405161031a91906118bf565b60405180910390f35b61033d60048036038101906103389190611286565b6107e6565b60405161034a9190611a9c565b60405180910390f35b61036d6004803603810190610368919061125d565b61086d565b005b60606003805461037e90611bcc565b80601f01602080910402602001604051908101604052809291908181526020018280546103aa90611bcc565b80156103f75780601f106103cc576101008083540402835291602001916103f7565b820191906000526020600020905b8154815290600101906020018083116103da57829003601f168201915b5050505050905090565b60008061040c610a2d565b9050610419818585610a35565b600191505092915050565b6000600254905090565b600080610439610a2d565b9050610446858285610c00565b610451858585610c8c565b60019150509392505050565b60006012905090565b600080610471610a2d565b905061049281858561048385896107e6565b61048d9190611aee565b610a35565b600191505092915050565b600560009054906101000a900473ffffffffffffffffffffffffffffffffffffffff1673ffffffffffffffffffffffffffffffffffffffff163373ffffffffffffffffffffffffffffffffffffffff161461052d576040517f08c379a000000000000000000000000000000000000000000000000000000000815260040161052490611a3c565b60405180910390fd5b60065481610539610424565b6105439190611aee565b1115610584576040517f08c379a000000000000000000000000000000000000000000000000000000000815260040161057b9061195c565b60405180910390fd5b61058e8282610f04565b5050565b60076020528060005260406000206000915090505481565b60008060008373ffffffffffffffffffffffffffffffffffffffff1673ffffffffffffffffffffffffffffffffffffffff168152602001908152602001600020549050919050565b6000600560009054906101000a900473ffffffffffffffffffffffffffffffffffffffff16905090565b60606004805461062b90611bcc565b80601f016020809104026020016040519081016040528092919081815260200182805461065790611bcc565b80156106a45780601f10610679576101008083540402835291602001916106a4565b820191906000526020600020905b81548152906001019060200180831161068757829003601f168201915b5050505050905090565b600560009054906101000a900473ffffffffffffffffffffffffffffffffffffffff1673ffffffffffffffffffffffffffffffffffffffff163373ffffffffffffffffffffffffffffffffffffffff161461073e576040517f08c379a000000000000000000000000000000000000000000000000000000000815260040161073590611a3c565b60405180910390fd5b610748828261105b565b5050565b600080610757610a2d565b9050600061076582866107e6565b9050838110156107aa576040517f08c379a00000000000000000000000000000000000000000000000000000000081526004016107a190611a5c565b60405180910390fd5b6107b78286868403610a35565b60019250505092915050565b6000806107ce610a2d565b90506107db818585610c8c565b600191505092915050565b6000600160008473ffffffffffffffffffffffffffffffffffffffff1673ffffffffffffffffffffffffffffffffffffffff16815260200190815260200160002060008373ffffffffffffffffffffffffffffffffffffffff1673ffffffffffffffffffffffffffffffffffffffff16815260200190815260200160002054905092915050565b600560009054906101000a900473ffffffffffffffffffffffffffffffffffffffff1673ffffffffffffffffffffffffffffffffffffffff163373ffffffffffffffffffffffffffffffffffffffff16146108fd576040517f08c379a00000000000000000000000000000000000000000000000000000000081526004016108f490611a3c565b60405180910390fd5b600073ffffffffffffffffffffffffffffffffffffffff168173ffffffffffffffffffffffffffffffffffffffff16141561096d576040517f08c379a00000000000000000000000000000000000000000000000000000000081526004016109649061193c565b60405180910390fd5b8073ffffffffffffffffffffffffffffffffffffffff16600560009054906101000a900473ffffffffffffffffffffffffffffffffffffffff1673ffffffffffffffffffffffffffffffffffffffff167f8be0079c531659141344cd1fd0a4f28419497f9722a3daafe3b4186f6b6457e060405160405180910390a380600560006101000a81548173ffffffffffffffffffffffffffffffffffffffff021916908373ffffffffffffffffffffffffffffffffffffffff16021790555050565b600033905090565b600073ffffffffffffffffffffffffffffffffffffffff168373ffffffffffffffffffffffffffffffffffffffff161415610aa5576040517f08c379a0000000000000000000000000000000000000000000000000000000008152600401610a9c90611a1c565b60405180910390fd5b600073ffffffffffffffffffffffffffffffffffffffff168273ffffffffffffffffffffffffffffffffffffffff161415610b15576040517f08c379a0000000000000000000000000000000000000000000000000000000008152600401610b0c9061197c565b60405180910390fd5b80600160008573ffffffffffffffffffffffffffffffffffffffff1673ffffffffffffffffffffffffffffffffffffffff16815260200190815260200160002060008473ffffffffffffffffffffffffffffffffffffffff1673ffffffffffffffffffffffffffffffffffffffff168152602001908152602001600020819055508173ffffffffffffffffffffffffffffffffffffffff168373ffffffffffffffffffffffffffffffffffffffff167f8c5be1e5ebec7d5bd14f71427d1e84f3dd0314c0f7b2291e5b200ac8c7c3b92583604051610bf39190611a9c565b60405180910390a3505050565b6000610c0c84846107e6565b90507fffffffffffffffffffffffffffffffffffffffffffffffffffffffffffffffff8114610c865781811015610c78576040517f08c379a0000000000000000000000000000000000000000000000000000000008152600401610c6f9061199c565b60405180910390fd5b610c858484848403610a35565b5b50505050565b600073ffffffffffffffffffffffffffffffffffffffff168373ffffffffffffffffffffffffffffffffffffffff161415610cfc576040517f08c379a0000000000000000000000000000000000000000000000000000000008152600401610cf3906119fc565b60405180910390fd5b600073ffffffffffffffffffffffffffffffffffffffff168273ffffffffffffffffffffffffffffffffffffffff161415610d6c576040517f08c379a0000000000000000000000000000000000000000000000000000000008152600401610d63906118fc565b60405180910390fd5b610d77838383611229565b60008060008573ffffffffffffffffffffffffffffffffffffffff1673ffffffffffffffffffffffffffffffffffffffff16815260200190815260200160002054905081811015610dfd576040517f08c379a0000000000000000000000000000000000000000000000000000000008152600401610df4906119bc565b60405180910390fd5b8181036000808673ffffffffffffffffffffffffffffffffffffffff1673ffffffffffffffffffffffffffffffffffffffff16815260200190815260200160002081905550816000808573ffffffffffffffffffffffffffffffffffffffff1673ffffffffffffffffffffffffffffffffffffffff168152602001908152602001600020600082825401925050819055508273ffffffffffffffffffffffffffffffffffffffff168473ffffffffffffffffffffffffffffffffffffffff167fddf252ad1be2c89b69c2b068fc378daa952ba7f163c4a11628f55a4df523b3ef84604051610eeb9190611a9c565b60405180910390a3610efe84848461122e565b50505050565b600073ffffffffffffffffffffffffffffffffffffffff168273ffffffffffffffffffffffffffffffffffffffff161415610f74576040517f08c379a0000000000000000000000000000000000000000000000000000000008152600401610f6b90611a7c565b60405180910390fd5b610f8060008383611229565b8060026000828254610f929190611aee565b92505081905550806000808473ffffffffffffffffffffffffffffffffffffffff1673ffffffffffffffffffffffffffffffffffffffff168152602001908152602001600020600082825401925050819055508173ffffffffffffffffffffffffffffffffffffffff16600073ffffffffffffffffffffffffffffffffffffffff167fddf252ad1be2c89b69c2b068fc378daa952ba7f163c4a11628f55a4df523b3ef836040516110439190611a9c565b60405180910390a36110576000838361122e565b5050565b600073ffffffffffffffffffffffffffffffffffffffff168273ffffffffffffffffffffffffffffffffffffffff1614156110cb576040517f08c379a00000000000000000000000000000000000000000000000000000000081526004016110c2906119dc565b60405180910390fd5b6110d782600083611229565b60008060008473ffffffffffffffffffffffffffffffffffffffff1673ffffffffffffffffffffffffffffffffffffffff1681526020019081526020016000205490508181101561115d576040517f08c379a00000000000000000000000000000000000000000000000000000000081526004016111549061191c565b60405180910390fd5b8181036000808573ffffffffffffffffffffffffffffffffffffffff1673ffffffffffffffffffffffffffffffffffffffff1681526020019081526020016000208190555081600260008282540392505081905550600073ffffffffffffffffffffffffffffffffffffffff168373ffffffffffffffffffffffffffffffffffffffff167fddf252ad1be2c89b69c2b068fc378daa952ba7f163c4a11628f55a4df523b3ef846040516112109190611a9c565b60405180910390a36112248360008461122e565b505050565b505050565b505050565b60008135905061124281611c6d565b92915050565b60008135905061125781611c84565b92915050565b60006020828403121561126f57600080fd5b600061127d84828501611233565b91505092915050565b6000806040838503121561129957600080fd5b60006112a785828601611233565b92505060206112b885828601611233565b9150509250929050565b6000806000606084860312156112d757600080fd5b60006112e586828701611233565b93505060206112f686828701611233565b925050604061130786828701611248565b9150509250925092565b6000806040838503121561132457600080fd5b600061133285828601611233565b925050602061134385828601611248565b9150509250929050565b61135681611b44565b82525050565b61136581611b56565b82525050565b600061137682611ad2565b6113808185611add565b9350611390818560208601611b99565b61139981611c5c565b840191505092915050565b60006113b1602383611add565b91507f45524332303a207472616e7366657220746f20746865207a65726f206164647260008301527f65737300000000000000000000000000000000000000000000000000000000006020830152604082019050919050565b6000611417602283611add565b91507f45524332303a206275726e20616d6f756e7420657863656564732062616c616e60008301527f63650000000000000000000000000000000000000000000000000000000000006020830152604082019050919050565b600061147d602f83611add565b91507f576f6f203a2043616e6e6f74207472616e73666572206f776e6572736869702060008301527f746f207a65726f206164647265737300000000000000000000000000000000006020830152604082019050919050565b60006114e3602583611add565b91507f576f6f203a2043616e6e6f74206d696e74206d6f7265207468616e207375707060008301527f6c794361700000000000000000000000000000000000000000000000000000006020830152604082019050919050565b6000611549602283611add565b91507f45524332303a20617070726f766520746f20746865207a65726f20616464726560008301527f73730000000000000000000000000000000000000000000000000000000000006020830152604082019050919050565b60006115af601d83611add565b91507f45524332303a20696e73756666696369656e7420616c6c6f77616e63650000006000830152602082019050919050565b60006115ef602683611add565b91507f45524332303a207472616e7366657220616d6f756e742065786365656473206260008301527f616c616e636500000000000000000000000000000000000000000000000000006020830152604082019050919050565b6000611655602183611add565b91507f45524332303a206275726e2066726f6d20746865207a65726f2061646472657360008301527f73000000000000000000000000000000000000000000000000000000000000006020830152604082019050919050565b60006116bb602583611add565b91507f45524332303a207472616e736665722066726f6d20746865207a65726f20616460008301527f64726573730000000000000000000000000000000000000000000000000000006020830152604082019050919050565b6000611721602483611add565b91507f45524332303a20617070726f76652066726f6d20746865207a65726f2061646460008301527f72657373000000000000000000000000000000000000000000000000000000006020830152604082019050919050565b6000611787602983611add565b91507f576f6f203a2046756e6374696f6e2063616c6c656420627920756e6175746f7260008301527f697a6564207573657200000000000000000000000000000000000000000000006020830152604082019050919050565b60006117ed602583611add565b91507f45524332303a2064656372656173656420616c6c6f77616e63652062656c6f7760008301527f207a65726f0000000000000000000000000000000000000000000000000000006020830152604082019050919050565b6000611853601f83611add565b91507f45524332303a206d696e7420746f20746865207a65726f2061646472657373006000830152602082019050919050565b61188f81611b82565b82525050565b61189e81611b8c565b82525050565b60006020820190506118b9600083018461134d565b92915050565b60006020820190506118d4600083018461135c565b92915050565b600060208201905081810360008301526118f4818461136b565b905092915050565b60006020820190508181036000830152611915816113a4565b9050919050565b600060208201905081810360008301526119358161140a565b9050919050565b6000602082019050818103600083015261195581611470565b9050919050565b60006020820190508181036000830152611975816114d6565b9050919050565b600060208201905081810360008301526119958161153c565b9050919050565b600060208201905081810360008301526119b5816115a2565b9050919050565b600060208201905081810360008301526119d5816115e2565b9050919050565b600060208201905081810360008301526119f581611648565b9050919050565b60006020820190508181036000830152611a15816116ae565b9050919050565b60006020820190508181036000830152611a3581611714565b9050919050565b60006020820190508181036000830152611a558161177a565b9050919050565b60006020820190508181036000830152611a75816117e0565b9050919050565b60006020820190508181036000830152611a9581611846565b9050919050565b6000602082019050611ab16000830184611886565b92915050565b6000602082019050611acc6000830184611895565b92915050565b600081519050919050565b600082825260208201905092915050565b6000611af982611b82565b9150611b0483611b82565b9250827fffffffffffffffffffffffffffffffffffffffffffffffffffffffffffffffff03821115611b3957611b38611bfe565b5b828201905092915050565b6000611b4f82611b62565b9050919050565b60008115159050919050565b600073ffffffffffffffffffffffffffffffffffffffff82169050919050565b6000819050919050565b600060ff82169050919050565b60005b83811015611bb7578082015181840152602081019050611b9c565b83811115611bc6576000848401525b50505050565b60006002820490506001821680611be457607f821691505b60208210811415611bf857611bf7611c2d565b5b50919050565b7f4e487b7100000000000000000000000000000000000000000000000000000000600052601160045260246000fd5b7f4e487b7100000000000000000000000000000000000000000000000000000000600052602260045260246000fd5b6000601f19601f8301169050919050565b611c7681611b44565b8114611c8157600080fd5b50565b611c8d81611b82565b8114611c9857600080fd5b5056fea2646970667358221220bdee9795e1e4517566d5a9eb9ef06696bf3d704c7802d2e7b0e853b3e4ae23d164736f6c63430008000033",
  "linkReferences": {},
  "deployedLinkReferences": {}
}